{
  "_format": "hh-sol-artifact-1",
  "contractName": "StreamPayCore",
  "sourceName": "contracts/StreamPayCore.sol",
  "abi": [
    {
      "anonymous": false,
      "inputs": [
        {
          "indexed": true,
          "internalType": "uint256",
          "name": "streamId",
          "type": "uint256"
        },
        {
          "indexed": true,
          "internalType": "address",
          "name": "recipient",
          "type": "address"
        },
        {
          "indexed": false,
          "internalType": "uint256",
          "name": "amount",
          "type": "uint256"
        }
      ],
      "name": "StreamClaimed",
      "type": "event"
    },
    {
      "anonymous": false,
      "inputs": [
        {
          "indexed": true,
          "internalType": "uint256",
          "name": "streamId",
          "type": "uint256"
        },
        {
          "indexed": true,
          "internalType": "address",
          "name": "sender",
          "type": "address"
        },
        {
          "indexed": true,
          "internalType": "address",
          "name": "recipient",
          "type": "address"
        },
        {
          "indexed": false,
          "internalType": "address",
          "name": "token",
          "type": "address"
        },
        {
          "indexed": false,
          "internalType": "uint256",
          "name": "ratePerSecond",
          "type": "uint256"
        },
        {
          "indexed": false,
          "internalType": "uint256",
          "name": "duration",
          "type": "uint256"
        }
      ],
      "name": "StreamCreated",
      "type": "event"
    },
    {
      "inputs": [
        {
          "internalType": "uint256",
          "name": "streamId",
          "type": "uint256"
        }
      ],
      "name": "availableToClaim",
      "outputs": [
        {
          "internalType": "uint256",
          "name": "",
          "type": "uint256"
        }
      ],
      "stateMutability": "view",
      "type": "function"
    },
    {
      "inputs": [
        {
          "internalType": "uint256",
          "name": "streamId",
          "type": "uint256"
        }
      ],
      "name": "cancelStream",
      "outputs": [],
      "stateMutability": "nonpayable",
      "type": "function"
    },
    {
      "inputs": [
        {
          "internalType": "uint256",
          "name": "streamId",
          "type": "uint256"
        }
      ],
      "name": "claim",
      "outputs": [],
      "stateMutability": "nonpayable",
      "type": "function"
    },
    {
      "inputs": [
        {
          "internalType": "address",
          "name": "recipient",
          "type": "address"
        },
        {
          "internalType": "address",
          "name": "token",
          "type": "address"
        },
        {
          "internalType": "uint256",
          "name": "deposit",
          "type": "uint256"
        },
        {
          "internalType": "uint256",
          "name": "ratePerSecond",
          "type": "uint256"
        },
        {
          "internalType": "uint256",
          "name": "duration",
          "type": "uint256"
        }
      ],
      "name": "createStream",
      "outputs": [
        {
          "internalType": "uint256",
          "name": "",
          "type": "uint256"
        }
      ],
      "stateMutability": "nonpayable",
      "type": "function"
    },
    {
      "inputs": [],
      "name": "nextStreamId",
      "outputs": [
        {
          "internalType": "uint256",
          "name": "",
          "type": "uint256"
        }
      ],
      "stateMutability": "view",
      "type": "function"
    },
    {
      "inputs": [
        {
          "internalType": "uint256",
          "name": "",
          "type": "uint256"
        }
      ],
      "name": "streams",
      "outputs": [
        {
          "internalType": "address",
          "name": "sender",
          "type": "address"
        },
        {
          "internalType": "address",
          "name": "recipient",
          "type": "address"
        },
        {
          "internalType": "address",
          "name": "token",
          "type": "address"
        },
        {
          "internalType": "uint256",
          "name": "deposit",
          "type": "uint256"
        },
        {
          "internalType": "uint256",
          "name": "ratePerSecond",
          "type": "uint256"
        },
        {
          "internalType": "uint256",
          "name": "startTime",
          "type": "uint256"
        },
        {
          "internalType": "uint256",
          "name": "stopTime",
          "type": "uint256"
        },
        {
          "internalType": "uint256",
          "name": "remainingBalance",
          "type": "uint256"
        },
        {
          "internalType": "bool",
          "name": "active",
          "type": "bool"
        }
      ],
      "stateMutability": "view",
      "type": "function"
    }
  ],
  "bytecode": "0x608060405234801561001057600080fd5b506001600081905550611cee806100286000396000f3fe608060405234801561001057600080fd5b50600436106100625760003560e01c806306eb2dd3146100675780631e99d56914610097578063379607f5146100b557806364d60d91146100d15780636db9241b14610109578063b6cc2a7d14610125575b600080fd5b610081600480360381019061007c9190611148565b610155565b60405161008e91906111d2565b60405180910390f35b61009f6105fb565b6040516100ac91906111d2565b60405180910390f35b6100cf60048036038101906100ca91906111ed565b610601565b005b6100eb60048036038101906100e691906111ed565b61095c565b60405161010099989796959493929190611244565b60405180910390f35b610123600480360381019061011e91906111ed565b610a17565b005b61013f600480360381019061013a91906111ed565b610bd1565b60405161014c91906111d2565b60405180910390f35b600061015f610cb2565b600073ffffffffffffffffffffffffffffffffffffffff168673ffffffffffffffffffffffffffffffffffffffff16036101ce576040517f08c379a00000000000000000000000000000000000000000000000000000000081526004016101c59061132e565b60405180910390fd5b600073ffffffffffffffffffffffffffffffffffffffff168573ffffffffffffffffffffffffffffffffffffffff160361023d576040517f08c379a00000000000000000000000000000000000000000000000000000000081526004016102349061139a565b60405180910390fd5b60008411610280576040517f08c379a000000000000000000000000000000000000000000000000000000000815260040161027790611406565b60405180910390fd5b600083116102c3576040517f08c379a00000000000000000000000000000000000000000000000000000000081526004016102ba90611472565b60405180910390fd5b60008211610306576040517f08c379a00000000000000000000000000000000000000000000000000000000081526004016102fd906114de565b60405180910390fd5b60008242610314919061152d565b905082846103229190611561565b8514610363576040517f08c379a000000000000000000000000000000000000000000000000000000000815260040161035a90611615565b60405180910390fd5b6103903330878973ffffffffffffffffffffffffffffffffffffffff16610d01909392919063ffffffff16565b6040518061012001604052803373ffffffffffffffffffffffffffffffffffffffff1681526020018873ffffffffffffffffffffffffffffffffffffffff1681526020018773ffffffffffffffffffffffffffffffffffffffff1681526020018681526020018581526020014281526020018281526020018681526020016001151581525060026000600154815260200190815260200160002060008201518160000160006101000a81548173ffffffffffffffffffffffffffffffffffffffff021916908373ffffffffffffffffffffffffffffffffffffffff16021790555060208201518160010160006101000a81548173ffffffffffffffffffffffffffffffffffffffff021916908373ffffffffffffffffffffffffffffffffffffffff16021790555060408201518160020160006101000a81548173ffffffffffffffffffffffffffffffffffffffff021916908373ffffffffffffffffffffffffffffffffffffffff160217905550606082015181600301556080820151816004015560a0820151816005015560c0820151816006015560e082015181600701556101008201518160080160006101000a81548160ff0219169083151502179055509050508673ffffffffffffffffffffffffffffffffffffffff163373ffffffffffffffffffffffffffffffffffffffff166001547feda1e5a48c710fd6bedb62b49521e911de7889fb3556c8c0485978520441e8d28988886040516105b993929190611635565b60405180910390a4600160008154809291906105d49061166c565b9190505550600180546105e791906116b4565b9150506105f2610d8a565b95945050505050565b60015481565b610609610cb2565b60006002600083815260200190815260200160002090508060080160009054906101000a900460ff16610671576040517f08c379a000000000000000000000000000000000000000000000000000000000815260040161066890611734565b60405180910390fd5b8060010160009054906101000a900473ffffffffffffffffffffffffffffffffffffffff1673ffffffffffffffffffffffffffffffffffffffff163373ffffffffffffffffffffffffffffffffffffffff1614610703576040517f08c379a00000000000000000000000000000000000000000000000000000000081526004016106fa906117a0565b60405180910390fd5b6000816006015442116107255781600501544261072091906116b4565b61073a565b8160050154826006015461073991906116b4565b5b9050600081836004015461074e9190611561565b905060008360070154846003015461076691906116b4565b90506000818311610778576000610785565b818361078491906116b4565b5b9050600081116107ca576040517f08c379a00000000000000000000000000000000000000000000000000000000081526004016107c19061180c565b60405180910390fd5b8460070154811115610811576040517f08c379a000000000000000000000000000000000000000000000000000000000815260040161080890611878565b60405180910390fd5b8085600701600082825461082591906116b4565b9250508190555061089f8560010160009054906101000a900473ffffffffffffffffffffffffffffffffffffffff16828760020160009054906101000a900473ffffffffffffffffffffffffffffffffffffffff1673ffffffffffffffffffffffffffffffffffffffff16610d949092919063ffffffff16565b8460010160009054906101000a900473ffffffffffffffffffffffffffffffffffffffff1673ffffffffffffffffffffffffffffffffffffffff16867fae8194793eb0586860ad9ca74669746e16d4383642d338c9539501787c5ae8d28360405161090a91906111d2565b60405180910390a3600085600701541480610929575084600601544210155b1561094c5760008560080160006101000a81548160ff0219169083151502179055505b5050505050610959610d8a565b50565b60026020528060005260406000206000915090508060000160009054906101000a900473ffffffffffffffffffffffffffffffffffffffff16908060010160009054906101000a900473ffffffffffffffffffffffffffffffffffffffff16908060020160009054906101000a900473ffffffffffffffffffffffffffffffffffffffff16908060030154908060040154908060050154908060060154908060070154908060080160009054906101000a900460ff16905089565b610a1f610cb2565b60006002600083815260200190815260200160002090508060080160009054906101000a900460ff16610a87576040517f08c379a0000000000000000000000000000000000000000000000000000000008152600401610a7e90611734565b60405180910390fd5b8060000160009054906101000a900473ffffffffffffffffffffffffffffffffffffffff1673ffffffffffffffffffffffffffffffffffffffff163373ffffffffffffffffffffffffffffffffffffffff1614610b19576040517f08c379a0000000000000000000000000000000000000000000000000000000008152600401610b10906118e4565b60405180910390fd5b60008160080160006101000a81548160ff021916908315150217905550600081600701541115610bc557610bba8160000160009054906101000a900473ffffffffffffffffffffffffffffffffffffffff1682600701548360020160009054906101000a900473ffffffffffffffffffffffffffffffffffffffff1673ffffffffffffffffffffffffffffffffffffffff16610d949092919063ffffffff16565b600081600701819055505b50610bce610d8a565b50565b6000806002600084815260200190815260200160002090508060080160009054906101000a900460ff16610c09576000915050610cad565b600081600601544211610c2b57816005015442610c2691906116b4565b610c40565b81600501548260060154610c3f91906116b4565b5b90506000818360040154610c549190611561565b9050600083600701548460030154610c6c91906116b4565b90506000818311610c7e576000610c8b565b8183610c8a91906116b4565b5b90508460070154811115610ca3578460070154610ca5565b805b955050505050505b919050565b600260005403610cf7576040517f08c379a0000000000000000000000000000000000000000000000000000000008152600401610cee90611950565b60405180910390fd5b6002600081905550565b610d84846323b872dd60e01b858585604051602401610d2293929190611970565b604051602081830303815290604052907bffffffffffffffffffffffffffffffffffffffffffffffffffffffff19166020820180517bffffffffffffffffffffffffffffffffffffffffffffffffffffffff8381831617835250505050610e1a565b50505050565b6001600081905550565b610e158363a9059cbb60e01b8484604051602401610db39291906119a7565b604051602081830303815290604052907bffffffffffffffffffffffffffffffffffffffffffffffffffffffff19166020820180517bffffffffffffffffffffffffffffffffffffffffffffffffffffffff8381831617835250505050610e1a565b505050565b6000610e7c826040518060400160405280602081526020017f5361666545524332303a206c6f772d6c6576656c2063616c6c206661696c65648152508573ffffffffffffffffffffffffffffffffffffffff16610ee29092919063ffffffff16565b9050600081511480610e9e575080806020019051810190610e9d91906119fc565b5b610edd576040517f08c379a0000000000000000000000000000000000000000000000000000000008152600401610ed490611a9b565b60405180910390fd5b505050565b6060610ef18484600085610efa565b90509392505050565b606082471015610f3f576040517f08c379a0000000000000000000000000000000000000000000000000000000008152600401610f3690611b2d565b60405180910390fd5b6000808673ffffffffffffffffffffffffffffffffffffffff168587604051610f689190611bbe565b60006040518083038185875af1925050503d8060008114610fa5576040519150601f19603f3d011682016040523d82523d6000602084013e610faa565b606091505b5091509150610fbb87838387610fc7565b92505050949350505050565b6060831561102957600083510361102157610fe18561103c565b611020576040517f08c379a000000000000000000000000000000000000000000000000000000000815260040161101790611c21565b60405180910390fd5b5b829050611034565b611033838361105f565b5b949350505050565b6000808273ffffffffffffffffffffffffffffffffffffffff163b119050919050565b6000825111156110725781518083602001fd5b806040517f08c379a00000000000000000000000000000000000000000000000000000000081526004016110a69190611c96565b60405180910390fd5b600080fd5b600073ffffffffffffffffffffffffffffffffffffffff82169050919050565b60006110df826110b4565b9050919050565b6110ef816110d4565b81146110fa57600080fd5b50565b60008135905061110c816110e6565b92915050565b6000819050919050565b61112581611112565b811461113057600080fd5b50565b6000813590506111428161111c565b92915050565b600080600080600060a08688031215611164576111636110af565b5b6000611172888289016110fd565b9550506020611183888289016110fd565b945050604061119488828901611133565b93505060606111a588828901611133565b92505060806111b688828901611133565b9150509295509295909350565b6111cc81611112565b82525050565b60006020820190506111e760008301846111c3565b92915050565b600060208284031215611203576112026110af565b5b600061121184828501611133565b91505092915050565b611223816110d4565b82525050565b60008115159050919050565b61123e81611229565b82525050565b60006101208201905061125a600083018c61121a565b611267602083018b61121a565b611274604083018a61121a565b61128160608301896111c3565b61128e60808301886111c3565b61129b60a08301876111c3565b6112a860c08301866111c3565b6112b560e08301856111c3565b6112c3610100830184611235565b9a9950505050505050505050565b600082825260208201905092915050565b7f496e76616c696420726563697069656e74000000000000000000000000000000600082015250565b60006113186011836112d1565b9150611323826112e2565b602082019050919050565b600060208201905081810360008301526113478161130b565b9050919050565b7f496e76616c696420746f6b656e00000000000000000000000000000000000000600082015250565b6000611384600d836112d1565b915061138f8261134e565b602082019050919050565b600060208201905081810360008301526113b381611377565b9050919050565b7f4465706f736974206d757374206265203e203000000000000000000000000000600082015250565b60006113f06013836112d1565b91506113fb826113ba565b602082019050919050565b6000602082019050818103600083015261141f816113e3565b9050919050565b7f52617465206d757374206265203e203000000000000000000000000000000000600082015250565b600061145c6010836112d1565b915061146782611426565b602082019050919050565b6000602082019050818103600083015261148b8161144f565b9050919050565b7f4475726174696f6e206d757374206265203e2030000000000000000000000000600082015250565b60006114c86014836112d1565b91506114d382611492565b602082019050919050565b600060208201905081810360008301526114f7816114bb565b9050919050565b7f4e487b7100000000000000000000000000000000000000000000000000000000600052601160045260246000fd5b600061153882611112565b915061154383611112565b925082820190508082111561155b5761155a6114fe565b5b92915050565b600061156c82611112565b915061157783611112565b925082820261158581611112565b9150828204841483151761159c5761159b6114fe565b5b5092915050565b7f4465706f73697420696e636f6d70617469626c65207769746820726174652f6460008201527f75726174696f6e00000000000000000000000000000000000000000000000000602082015250565b60006115ff6027836112d1565b915061160a826115a3565b604082019050919050565b6000602082019050818103600083015261162e816115f2565b9050919050565b600060608201905061164a600083018661121a565b61165760208301856111c3565b61166460408301846111c3565b949350505050565b600061167782611112565b91507fffffffffffffffffffffffffffffffffffffffffffffffffffffffffffffffff82036116a9576116a86114fe565b5b600182019050919050565b60006116bf82611112565b91506116ca83611112565b92508282039050818111156116e2576116e16114fe565b5b92915050565b7f496e6163746976652073747265616d0000000000000000000000000000000000600082015250565b600061171e600f836112d1565b9150611729826116e8565b602082019050919050565b6000602082019050818103600083015261174d81611711565b9050919050565b7f4f6e6c7920726563697069656e742063616e20636c61696d0000000000000000600082015250565b600061178a6018836112d1565b915061179582611754565b602082019050919050565b600060208201905081810360008301526117b98161177d565b9050919050565b7f4e6f7468696e6720746f20636c61696d00000000000000000000000000000000600082015250565b60006117f66010836112d1565b9150611801826117c0565b602082019050919050565b60006020820190508181036000830152611825816117e9565b9050919050565b7f496e73756666696369656e742062616c616e6365000000000000000000000000600082015250565b60006118626014836112d1565b915061186d8261182c565b602082019050919050565b6000602082019050818103600083015261189181611855565b9050919050565b7f4f6e6c792073656e6465722063616e2063616e63656c00000000000000000000600082015250565b60006118ce6016836112d1565b91506118d982611898565b602082019050919050565b600060208201905081810360008301526118fd816118c1565b9050919050565b7f5265656e7472616e637947756172643a207265656e7472616e742063616c6c00600082015250565b600061193a601f836112d1565b915061194582611904565b602082019050919050565b600060208201905081810360008301526119698161192d565b9050919050565b6000606082019050611985600083018661121a565b611992602083018561121a565b61199f60408301846111c3565b949350505050565b60006040820190506119bc600083018561121a565b6119c960208301846111c3565b9392505050565b6119d981611229565b81146119e457600080fd5b50565b6000815190506119f6816119d0565b92915050565b600060208284031215611a1257611a116110af565b5b6000611a20848285016119e7565b91505092915050565b7f5361666545524332303a204552433230206f7065726174696f6e20646964206e60008201527f6f74207375636365656400000000000000000000000000000000000000000000602082015250565b6000611a85602a836112d1565b9150611a9082611a29565b604082019050919050565b60006020820190508181036000830152611ab481611a78565b9050919050565b7f416464726573733a20696e73756666696369656e742062616c616e636520666f60008201527f722063616c6c0000000000000000000000000000000000000000000000000000602082015250565b6000611b176026836112d1565b9150611b2282611abb565b604082019050919050565b60006020820190508181036000830152611b4681611b0a565b9050919050565b600081519050919050565b600081905092915050565b60005b83811015611b81578082015181840152602081019050611b66565b60008484015250505050565b6000611b9882611b4d565b611ba28185611b58565b9350611bb2818560208601611b63565b80840191505092915050565b6000611bca8284611b8d565b915081905092915050565b7f416464726573733a2063616c6c20746f206e6f6e2d636f6e7472616374000000600082015250565b6000611c0b601d836112d1565b9150611c1682611bd5565b602082019050919050565b60006020820190508181036000830152611c3a81611bfe565b9050919050565b600081519050919050565b6000601f19601f8301169050919050565b6000611c6882611c41565b611c7281856112d1565b9350611c82818560208601611b63565b611c8b81611c4c565b840191505092915050565b60006020820190508181036000830152611cb08184611c5d565b90509291505056fea2646970667358221220f4b11121e8fdb6e5f7aed78b9d834d24479a237bacf3b9acef1c053f76f1dfe064736f6c63430008140033",
  "linkReferences": {},
  "deployedLinkReferences": {}
}